:020000040800F2
:10000000200A00200101000805110008FD10000869
:1000100001110008E50800086D1A00080000000042
:10002000000000000000000000000000851600082D
:10003000E90800080000000069110008A116000886
:100040001B0100081B0100081B0100081B01000820
:100050001B0100081B0100081B0100081B01000810
:100060001B0100081B0100081B0100081B01000800
:100070001B0100081B0100081B0100081B010008F0
:100080001B0100081B0100081B0100081B010008E0
:100090001B0100081B0100081B0100081B010008D0
:1000A0001B0100081B0100081B0100081B010008C0
:1000B0001B0100081B0100081B0100081B010008B0
:1000C0001B0100081B0100081B0100081B010008A0
:1000D0001B0100081B010008E11700081B010008B4
:1000E0001B0100081B0100081B010008DFF80CD0F1
:1000F00000F052FB00480047E91A0008200A0020DF
:100100000648804706480047FEE7FEE7FEE7FEE7B1
:10011000FEE7FEE7FEE7FEE7FEE7FEE7A5160008BE
:10012000ED000008D2B201E000F8012B491EFBD21D
:1001300070470022F6E710B513460A4604461946F2
:10014000FFF7F0FF204610BD30B505462A460B46A6
:1001500012F8010B13F8014B08B1A042F8D01CB102
:10016000002802D06D1CF1E7284630BDF0B480EACB
:100170000102D40F4200B2EB410F02D20246084600
:1001800011464A0042D0C30DDDB2C1F3C752AD1AC9
:10019000202D35DAC1F3160141F4000204B15242B8
:1001A000C5F1200602FA06F12A411044B3EBD05FF4
:1001B00023D0C4B1012DA0EBC35009DCF0BC4FF03B
:1001C000004202EAC352DBB200F5000000F0FEB8C4
:1001D000400000F1807000EBC350A0F1807040EA55
:1001E000D170490009E0490841EAC071A0EBC35051
:1001F00000F50000400800EBC350F0BC00F0DDB893
:100200006142012202EB4101001BF6E7F0BC70479E
:1002100081F00041AAE780F00040A7E780EA0102F0
:1002200010B502F00043400022D04A001FD0010E5A
:1002300001EB1261C0F35600C2F3560240F4000015
:1002400042F40002A0FB022000047F39140400D015
:10025000401C50EA124001D44000491EC2B20C06B4
:1002600004EBD010401C4008802A02D003E000209C
:1002700010BD20F00100002900DA0020184310BD55
:1002800030B480EA010202F0004530F0004221F073
:10029000004013D090B1C30DD40DC2F31601C0F3CA
:1002A0001600E41A41F4000140F400027D3491424A
:1002B00001D3641C00E04900002C02DA30BC0020AD
:1002C00070474FF400000023914201D3891A034381
:1002D00040084FEA4101F7D151B1914202D14FF0AC
:1002E000004105E002D24FF0010101E06FF0010191
:1002F00003EBC450284430BC00F05FB896230022C2
:10030000114600F063B800F0004230F000400AD01F
:10031000C10D01F56071C0F3160042EA0151C20837
:1003200040071143704700200146704730B50B4627
:10033000014600202022012409E021FA02F59D4215
:1003400005D303FA02F5491B04FA02F52844151EE9
:10035000A2F10102F1DC30BD2DE9F05F054600207D
:1003600092469B4688460646814640241BE0284626
:1003700041464746224600F036FA53465A46C01ACE
:10038000914110D311461846224600F01DFA2D1A4D
:1003900067EB01084F4622460120002100F014FAC5
:1003A00017EB00094E41201EA4F10104DFDC484692
:1003B00031462A464346BDE8F09F0029A8BF704752
:1003C000401C490008BF20F00100704710B4B0FA8B
:1003D00080FC00FA0CF050EA010404BF10BC704726
:1003E00049B1CCF1200421FA04F411FA0CF118BF40
:1003F000012121430843A3EB0C01CB1D4FEA00610F
:100400004FEA102042BF002010BC704700EBC350E1
:1004100010440029A4BF10BC7047401C490008BF0D
:1004200020F0010010BC70472DE9FE4F804681EAA4
:100430000300C00F0C46009021F0004123F000455E
:10044000B8EB0200A94105D24046214690461C4621
:100450000B46024623F00040104347D0270DC7F358
:100460000A00C3F30A510290401A019040286BDA47
:10047000C3F3130040F4801B0098924620B1002380
:10048000D2EB030A63EB0B0B01985946C0F1400213
:10049000504600F099F906460D4650465946019AD5
:1004A00000F0B1F910EB08006141002487EA115215
:1004B00084EAE7731A4340D0009A62B3019A012A92
:1004C0004FEA075215DC001B61EB02014FF00042BE
:1004D00002EA0752CDE90042001C41F58011324684
:1004E0002B4600F0B1F903B0BDE8F08F404621463D
:1004F000F9E7001B61EB0201001C41F580130018B5
:100500005B412018A2F5001747EB030140EAD570C4
:10051000B6196D4111E06D084FEA360645EAC0751F
:100520004FEA0752001B61EB0201001C41F58011EC
:1005300049084FEA30000019514132462B4603B0BA
:10054000BDE8F04F00F071B900980122400000238F
:10055000D0EB020263EBE073009821464FEAE074AF
:10056000B8EB000061EB0401E9E783F000435BE7CF
:1005700081F0004158E72DE9FE4F81EA030404F0C1
:10058000004421F0004100944FF0000B23F00043A1
:1005900050EA01045ED052EA03045BD0C3F30A546C
:1005A000C1F30A552C44A4F2F3340194A0FB025485
:1005B000C1F3130141F48011C3F3130343F4801317
:1005C00001FB024400FB034E840A970A44EA81546B
:1005D00047EA8357A4FB076802958D0A05FB078548
:1005E0004FEA932C04FB0C542705029D4FEA065852
:1005F00047EA1637B5EB08056EEB070C870E920E2F
:1006000047EA811742EA8312A7FB0201B6EB0B010E
:1006100064EB00042B0D43EA0C335E1844EB1C50D2
:10062000DA465146E7FB0201C5F313044FEA0B33E8
:1006300043EA14534FEA0432019C43EA0603A4F14F
:100640000C040294009CCDE900B400F0FDF803B066
:10065000BDE8F08F00200146F9E72DE9F04D81EA71
:10066000030404F0004B21F0004514464FF0000A4B
:1006700023F0004150EA050220D054EA01021DD0C7
:10068000C5F30A570246C5F31303C1F31300C1F3C0
:100690000A5640F4801543F48013A7EB0608101B9C
:1006A000D64608F2FD3873EB050002D308F10108C5
:1006B00001E092185B41B8F1000F03DA0020014617
:1006C000BDE8F08D00204FF48011064684460EE010
:1006D000171B73EB050705D3121B63EB05030643DA
:1006E0004CEA010C49084FEA300092185B4150EA8D
:1006F0000107EDD152EA030012D082EA040083EA36
:100700000501084305D0101BAB4106D2012200238E
:1007100006E000224FF0004302E06FF001025310A8
:100720001AEB06004CEB085110EB0A0041EB0B01F1
:10073000BDE8F04D00F079B8C1F30A52C1F31301DE
:1007400040F2FF3341F480119A4202DA0020014660
:10075000704740F233439A42A2F2334202DC5242E3
:1007600000F041B800F030B830B5041E71F100045B
:1007700004DB4FF00044404264EB0101141E73F1AE
:10078000000405DB1C464FF00043524263EB0403B8
:10079000994208BF904230BD1CB5094800900948F5
:1007A00001900546009C06E0E06840F0010394E8F3
:1007B000070098471034AC42F6D3FFF79BFC0000CB
:1007C000BC2A0008DC2A0008202A04DB203A00FAB0
:1007D00002F1002070479140C2F1200320FA03F398
:1007E000194390407047202A04DB203A21FA02F096
:1007F0000021704721FA02F3D040C2F1200291405B
:10080000084319467047202A06DBCB17203A41FAE5
:1008100002F043EAE07306E041FA02F3D040C2F18D
:100820002002914008431946704710B5141E73F119
:10083000000408DA401C41F1000192185B411A43A0
:1008400001D120F0010010BD2DE9F04D92469B46EC
:1008500011B1B1FA81F202E0B0FA80F22032904692
:10086000FFF7B2FF04460F4640EA0A0041EA0B01D7
:1008700053465A46084313D0114653EA010019D093
:10088000C8F140025046FFF7AEFF05460E465046FF
:1008900059464246FFF798FF084305D0012004E07F
:1008A00020463946BDE8F08D0020054346EAE07653
:1008B0002C4337430A986305E40AA0EB08000022A2
:1008C000FD0A44EA47540A3002D500200146E9E710
:1008D000010510196941DDE9084500196941BDE8C4
:1008E000F04DA2E7FEE700007047000070B586B04B
:1008F000044644F20400012100F050FC40F20020C4
:1009000040F60005C1F60300C4F2010505AE0590EE
:100910002846314600F082FB4FF48060ADF81400A9
:1009200004208DF817002846314600F077FB01942B
:1009300000204FF4402105F5405402900391ADF89A
:10094000100001A9204601F02DF82046012100F0F9
:1009500091FF06B070BD0000002808BF7047B0B519
:100960000546007843F60004C4F2010470B100BFEC
:100970002046802100F0E0FF0028F9D029782046A9
:1009800001F070F815F8010F0028F1D12046402140
:1009900000F0D2FF0028F9D0BDE8B0407047000059
:1009A00080B56FF0040000F06FFE40F20000C2F26C
:1009B000000000684DF68361C4F21B31A0FB010109
:1009C00040F2E852480DC2F200021070C1F34750E5
:1009D0004FF47A71484340F2E651C2F200010880B8
:1009E00080BD00002DE9F04F81B042F65E2B00275C
:1009F0000FF2A00A29A42FA5C0F6000B0FF2F408ED
:100A00000FF2041903E000BF0137012F21D15AF87A
:100A10002760304601F098FA2046314600F0C8F8C9
:100A200028464FF47A7100F0A1FAE0B900F0D2FE46
:100A30000646002808BF5E4630780028E4D04046CD
:100A4000FFF78AFF3046FFF787FF4846FFF784FF2E
:100A5000DAE742F65F20C0F60000FFF77DFF0020D6
:100A600001B0BDE8F08F14A04FF47A7100F07EFA67
:100A700013A04FF47A7100F079FA14A04FF47A7150
:100A800000F074FA15A0314600F092F8012001B090
:100A9000BDE8F08F00C201008025000045535030B2
:100AA0003120747279206261756420256C750D0A9D
:100AB0000000000041540000415445300000000097
:100AC00041542B43574D4F44453D310041542B4336
:100AD000574155544F434F4E4E3D310045535030D2
:100AE0003120415420726561647920617420256C45
:100AF000750D0A00455350303120726177207265C0
:100B0000706C793A200000000D0A000010B5AAB000
:100B100002AC0FF2380C10A214A32046A021CDF88D
:100B200000C001F06FFA204644F6206100F01EFA82
:100B30000446002817A018BF012410A118BF0846BA
:100B4000FFF70AFF20462AB010BD00BF7337387880
:100B500063656E710000000041542B43574A4150B9
:100B60003D222573222C2225732200004368696EE2
:100B7000614E65742D44704D640000004553503043
:100B800031205769466920636F6E6E6563746564D2
:100B90000D0A0000455350303120576946692063E3
:100BA0006F6E6E656374206661696C65640D0A0022
:100BB00083B010B599B084461BA801AC0EC01BAB26
:100BC000204660216246009301F036FA2046FFF786
:100BD000C3FE19B0BDE8104003B0704740F2E950C1
:100BE000C2F200000078704710B5C2B042F65E2C29
:100BF00002ACC0F6000C1CA226A320464FF4807164
:100C0000CDF800C0CDF804C001F0FCF9204640F654
:100C1000B83100F0ABF9F8B142F68E2242F6AD23BE
:100C200002AC40F25B7CC0F60002C0F60003204636
:100C30004FF48071CDF800C001F0E4F920464FF484
:100C4000FA5100F093F90446002824A018BF0124AB
:100C50001CA118BF084601E0002412A0FFF77CFE8B
:100C6000204642B010BD00BF41542B4D5154545545
:100C70005345524346473D302C312C222573222CBC
:100C8000222573222C222573222C302C302C222258
:100C90000000000073746D33325F6465763030316C
:100CA000000000004553503031204D515454207500
:100CB00073657220636F6E666967206661696C6533
:100CC000640D0A004553503031204D515454206377
:100CD0006F6E6E65637465640D0A00004553503095
:100CE00031204D51545420636F6E6E6563742066DD
:100CF00061696C65640D0A00002804BF002070471C
:100D000070B5ADF57A7D42F6A623054621A2C0F660
:100D10000003E2A8602101F075F92A784FF0000C79
:100D20004FF000000AB302A94FF05C0E2C460023DE
:100D300010E000BF7208BE2A9CBF013001F806E037
:100D400022780133461C80B20A5498B22A5C2C18CF
:100D500030464AB186B2B6F5BF7F04D85C2AE9D0E6
:100D6000222AE7D0ECE70646B0B202AE62AC06F843
:100D700000C00EA2E2AB20464FF40071009601F0D5
:100D800041F9204641F2883100F0F0F80DF57A7D06
:100D900070BD00BF636F6C64636861696E2F2573FB
:100DA0002F74656C656D65747279000041542B4D2C
:100DB0005154545055423D302C222573222C22256B
:100DC00073222C312C300000B0B5C0B042F6A623FF
:100DD00028AC0EA2C0F600032046602101F012F9F3
:100DE0006D460FA22846A021234601F00BF92846A4
:100DF00040F6B83100F0BAF810B1012040B0B0BDF3
:100E00000CA0FFF7A9FD002040B0B0BD636F6C647B
:100E1000636861696E2F25732F636D6400000000A5
:100E200041542B4D5154545355423D302C2225737F
:100E3000222C31004553503031204D5154542073F1
:100E40007562736372696265206661696C65640DC1
:100E50000A000000B0B500F0BDFC42F65E24C0F60A
:100E60000004002818BF0446207870B121A1204654
:100E7000FFF76AF9002808BFB0BD22A12046FFF79E
:100E800063F9054610B123A006E0B0BD28A12046B5
:100E9000FFF75AF950B12AA040F2E951C2F200011D
:100EA000002D18BF01250D70FFF756FD2CA120461F
:100EB000FFF74AF940F2EA51C2F2000198B1827A92
:100EC0006AB10B30002300BF1E2B0AD8222A08D09B
:100ED000CA54C25C5D1C002A2B46F5D102E00025F5
:100EE00000E01D46294400200870BDE8B04000F035
:100EF00061BC00BF2274797065223A22414C415294
:100F00004D220000227374617465223A224F4E22F2
:100F100000000000416C61726D20636F6D6D616E49
:100F200064204F4E2072656365697665640D0A0022
:100F3000227374617465223A224F464622000000F3
:100F4000416C61726D20636F6D6D616E64204F4600
:100F5000462072656365697665640D0A00000000CD
:100F600022726561736F6E223A2200002DE9F04F04
:100F700081B00C46054600F01DFC1FA0294600F07C
:100F8000ADFF42F65E2BC0F6000B1DA50FF2740AF2
:100F90000FF278090FF27C0803E000BF002701265A
:100FA00037B324B300F016FC0746002808BF5F469D
:100FB00038462946FFF7C8F80028EFD13846514691
:100FC000FFF7C2F850B938464946FFF7BDF828B9CF
:100FD00038464146FFF7B8F818B100BF0026002791
:100FE000DEE70120012700F043FD013CD8E70026A1
:100FF000F0B201B0BDE8F08F25730D0A00000000CB
:101000004F4B00004552524F520000004641494CA0
:10101000000000006275737900000000CA7802F0D9
:101020000F0CD30644BF8B784CEA030C2DE9F04734
:1010300009880B0625D082465AF8144B00F1100E91
:1010400000254FF001094FF00F08002706E000BF10
:101050001E600137082F05F1040511D009FA07F6C3
:101060000E42F6D008FA05F324EA03030CFA05F45D
:101070001C43282A5346EBD0482AEAD17346E7E7B7
:101080000460B1F5807F38BFBDE8F087436800F1A8
:10109000100E00F1140900254FF4807A4FF00F086C
:1010A000002705E034600137082F05F1040512D050
:1010B0000AFA07F404EA0106A642F4D108FA05F692
:1010C000B3430CFA05F63343282A4E46EAD0482AA1
:1010D000E9D17646E6E74360BDE8F08780680840DE
:1010E00018BF012070470000C068084018BF0120E9
:1010F000704700004161704701617047FEE70000E2
:10110000FEE700007047000010B5C17800294EF2DC
:101110000011CEF200011AD04EF60C52CEF20002AF
:101120001268072323EA12220F23C2F1040C23FAC8
:1011300002F24378847890F800E003FA0CF322403E
:101140001A43120101EB0E0383F8002300E0803103
:101150000078012300F01F0203FA02F2C0F34210EC
:1011600041F8202010BD000070470000002941F226
:101170001C01C4F202010A680CBF22EA00001043FD
:1011800008607047002941F21001C4F202010A68A8
:101190000CBF22EA0000104308607047002941F2AA
:1011A0001801C4F202010A680CBF22EA00001043D1
:1011B00008607047002941F20C01C4F202010A687C
:1011C0000CBF22EA000010430860704710B541F2DE
:1011D0000404C4F20204226802F00C02082A41F25C
:1011E0000022C0F27A0212D12368D4F800C0C3F3FF
:1011F000834E5FEACC330EF1020C02D523689B03C9
:1012000003D540F60012C0F23D020CFB02F2026070
:10121000226842F65813C2F30312C0F600039A5C28
:101220000168D14041602268C2F302229A5C21FA2F
:1012300002F282602268C2F3C2229A5C42F6541320
:10124000D140C1602268C0F60003C2F381329A5CCB
:10125000B1FBF2F1016110BD10B582B0082001218F
:101260000124FFF79BFFC020C1F20340019040F62C
:101270000040C4F2010001A9FFF7D0FE48F2981027
:10128000C4F221200460446002B010BD2DE9F04F8B
:1012900085B000284FF0000B00F0938048F29816BC
:1012A0008246C4F22126012405207460346000F0D7
:1012B000FDFB0520C6F804B000F0F8FB0520C6F8D9
:1012C00000B000F0F3FB8827002500BFF8B2C0098A
:1012D0007060052000F0EAFB0520346000F0E6FBBA
:1012E0000520C6F800B000F0E1FB7F00072D05F1F6
:1012F0000105EBD340F600484FF001090520C4F288
:101300000108C6F80490C6F8049000F0CFFB052051
:10131000C6F8009000F0CAFB40468021FFF7DEFED1
:1013200007464FF0000B0520C6F800B000F0BEFBEA
:1013300067B10520C6F804B000F0B8FB0520C6F878
:10134000009000F0B3FBC6F8049037E02427002497
:10135000F8B2C0097060052000F0A8FB0520C6F8AF
:10136000009000F0A3FB0520C6F800B000F09EFB43
:101370007F00072C04F10104EAD3012405207460E6
:10138000746000F093FB0520346000F08FFB404652
:101390008021FFF7A3FE07464FF0000B0520C6F89B
:1013A00000B000F083FB87B10520C6F804B000F060
:1013B0007DFB0520346000F079FB7460052000F0AF
:1013C00075FB584605B0BDE8F08F00250520C6F82E
:1013D00004B000F06BFB0520346000F067FB0520D3
:1013E000C6F800B000F062FB072D05F10105EDD352
:1013F000012705207760776000F058FB05203760F3
:1014000000F054FB40468021FFF768FE81464FF014
:10141000000B0520C6F800B000F048FB0520C6F818
:1014200004B000F043FB0520376000F03FFB0520CF
:10143000776000F03BFBB9F1000FC2D1142000F03F
:1014400017FB05207760376000F030FB0520C6F8F9
:1014500004B000F02BFB0520C6F800B000F026FB1E
:1014600089240025E0B2C0097060052000F01EFB51
:101470000520376000F01AFB0520C6F800B000F028
:1014800015FB6400072D05F10105EBD301240520B0
:101490007460746000F00AFB0520346000F006FB05
:1014A00040468021FFF71AFE07464FF0000B05204B
:1014B000C6F800B000F0FAFA002F7FF475AF0120F3
:1014C00000F08AF802908DF80E00012000F084F8F8
:1014D00001908DF80F00012000F07EF807468DF88E
:1014E0001000012000F078F80DF10E0800908DF842
:1014F0001100012008F1030500F06EF883468DF815
:10150000120000204FF0000900F066F806468DF842
:10151000130000F0A1F8FF20312100BF18F80920C6
:101520005040002244B203464000002C48BF81EAEC
:101530004300072A02F10102F4D309F10109B9F1CC
:10154000020FEBD1C0B2B84243D1FF2000213122BB
:101550006B5C5840002300BF44B207464000002C9B
:1015600048BF82EA4700072B03F10103F4D301319E
:101570000229EDD1C0B2B0422BD1DDE9011041EA20
:10158000002000994BEA0125FEF7B8FE0021C4F2C5
:101590002F31FEF743FE4FF60076C4F27F763146D8
:1015A000FEF76EFE0021CCF23421FEF7DFFDCAF813
:1015B00000002846FEF7A2FE0021C4F2C821FEF773
:1015C0002DFE3146FEF75CFE4FF0010BCAF8040019
:1015D000F7E64FF0000BF4E62DE9F04748F29816D5
:1015E00040F600458046C4F221264FF001094FF035
:1015F000000AC4F2010500270024C6F8049000BFC9
:101600000520C6F8009000F051FA28468021FFF727
:1016100065FD002818BF012040EA47070520C6F8ED
:1016200000A000F043FA072C04F10104E8D3B8FA53
:1016300088F040097060052000F038FA0124052088
:10164000346000F033FA00203060052000F02EFAFC
:10165000F8B27460BDE8F087B0B548F29C14C4F2EB
:10166000212400202060052000F020FA012505201B
:1016700044F8045C00F01AFA05202560BDE8B0408B
:1016800000F014BA704700004EF21001CEF20001D3
:101690000A68042822F0040208BF04320A60704776
:1016A0007047000082B041F20400C4F2020050F81A
:1016B000041C002241F0010140F8041C0168CFF62F
:1016C000FF021140016050F8041C4FF6FF72CFF684
:1016D000F662114040F8041C50F8041C21F48021EB
:1016E00040F8041C016821F4FE0101604FF41F0161
:1016F000416000210191009150F8041C41F48031B7
:1017000040F8041C50F8041C01F4003100910199C8
:1017100001310191009919B90199B1F5A06FF1D189
:1017200050F8041C890354BF002101210091009945
:10173000012936D142F20001C4F202010A6842F0E6
:1017400010020A600A6822F003020A600A6842F086
:1017500002020A600168016001680160016841F4E9
:1017600080610160016821F47C110160016841F42D
:10177000E811016050F8041C41F0807140F8041C2D
:1017800050F8041C8901FBD5016821F003010160B8
:10179000016841F002010160016801F00C010829B3
:1017A000FAD14EF60850CEF200004FF00061016011
:1017B00002B0704780B540F20800C2F200004FF45A
:1017C0007A71FEF7B6FC40F2F030C2F20000002160
:1017D000018080BD40F20800C2F2000070470000A6
:1017E00070B544F20044C4F200042046082100F021
:1017F000A3F8012806D12046082100F037F820463A
:1018000000F02CF9204640F2255100F09BF840F200
:10181000F035C2F20005C8B12E8820466FF3DF36DE
:1018200000F01CF940F2E6318E4208D840F208017F
:10183000C2F20001721C002388558B542A80C0B26A
:101840000A2803D1288840F400402880204640F22E
:10185000244100F077F8002808BF70BD2088A088D8
:10186000288840F40040288070BD0000C9430180F2
:10187000704700008289002918BF012122F400521C
:1018800042EA41318181704780B544F6FF31C4F2AC
:10189000000188421EDD44F60041C4F20001884286
:1018A0002CD045F20001C4F2000188422ED043F64C
:1018B0000001C4F20101884218BF80BD4FF480408E
:1018C0000121FFF777FC4FF480400021BDE8804004
:1018D000FFF770BC44F20041C4F2000188421DD001
:1018E00044F60001C4F20001884223D14FF4802065
:1018F0000121FFF747FC4FF4802016E04FF4002051
:101900000121FFF73FFC4FF400200EE04FF4801060
:101910000121FFF737FC4FF4801006E04FF4003050
:101920000121FFF72FFC4FF400300021BDE880407B
:10193000FFF728BC80BD00000088084018BF0120C8
:1019400070470000C1F34212022A06D0012A14BFD8
:1019500000F1140200F10C0201E000F11002128803
:10196000008801F01F03090ADA40C840104000F067
:1019700001007047C1F3421301F01F0C1421022B28
:1019800008BF1021012B4FF0010308BF0C21002AD2
:1019900003FA0CF243580CBF23EA02021A434250E6
:1019A0007047000070B586B00446008A0D46C988AD
:1019B00020F4405008432082A0894EF6F3110840DD
:1019C000A9882A896B89084310431843A081A08AFB
:1019D000A98920F44070084301AEA0823046FFF789
:1019E000F5FB43F6000106F10800C4F201018C4248
:1019F00008BF06F10C0000681922B4F90C1050431E
:101A00002A680123B1F1FF3FC8BF022302FA03F1A4
:101A1000B0FBF1F048F21F51C5F2EB11A0FB01231E
:101A20005A096FF0630302FB0300B4F90C3003267C
:101A3000B3F1FF3FC8BF042600FA06F000F1320000
:101A4000A0FB01014FF00700C8BF0F2000EA5110B2
:101A500040EA0210208106B070BD000080886FF35C
:101A60005F2070476FF35F2181807047FEE70000C1
:101A700040F2E651C2F200010A884EF21001CEF2A5
:101A800000015043486000208860086840F0010071
:101A9000086000BF086800F001100128FAD008684B
:101AA00020F00100086000208860704740F2E85193
:101AB000C2F200010A784EF21001CEF2000150434A
:101AC000486000208860086840F00100086000BF9E
:101AD000086800F001100128FAD0086820F0010021
:101AE0000860002088607047ADF5047D41F2000871
:101AF000C4F20108FFF7D6FDFEF752FF1D200121B9
:101B00000124FFF74BFB42F20000C1F2020024ADBA
:101B1000249040462946FFF781FA40464FF4005191
:101B2000FFF7EAFA41F20000C1F20200A8F580696D
:101B3000249048462946FFF771FA48464FF48051F1
:101B4000FFF7D8FA4820A8F5006B8DF893005846A7
:101B50002946ADF89040FFF761FAFFF77DFB4FF49F
:101B6000E130FEF7C3FE4FF4E13000F0EDF9C8209C
:101B7000FFF77EFFB4A0FEF7EFFE40F2186440F2DC
:101B80000C67C2F20004C2F20007002600254FF0E5
:101B9000000A00200990CDE906B92CE042F668124F
:101BA000C0F6000242F68810B9F1000FC0F600003E
:101BB00008BF024602940AAC20466021CDE900B875
:101BC000CDF80CA000F01EFA2046FEF7C5FE41F24B
:101BD0000008DDE906B940F2186440F20C67089D80
:101BE000C4F20108C2F20004C2F20007B246142097
:101BF000FFF73EFF1436FFF72DF958460121FFF796
:101C00006DFAB0FA80F1227849098A421AD040F27E
:101C10001462C2F200021268B21A1E2A12D340F2F3
:101C20001462C2F200021660217058B9FEF7D6FFA6
:101C300040B140F21A610120C2F20001087089A08F
:101C4000FEF78AFEFEF7CAFF18B13968002908BFFF
:101C50003E6048B1396829B1711A47F23152914258
:101C600004D200BF60B917E00021396040F21A6267
:101C70000146C2F20002002818BF0121117058B1BC
:101C800040F21A60C2F20000007828B948464FF4CA
:101C90008051FFF731FA04E048464FF48051FFF7D6
:101CA00029FA0998301AB0F5FA7F13D340464FF459
:101CB0000051FFF719FA012806D140464FF40051B0
:101CC000FFF718FA05E000BF40464FF40051FFF758
:101CD00013FA0996701B41F28831884244D340F2CE
:101CE0001060C2F20000007840B9FEF77BFE40F2BF
:101CF0001061C2F2000135460870A8B340F21C60C2
:101D0000C2F20000007840B9FEF700FF40F21C610B
:101D1000C2F200013546087030B340F21965C2F2D4
:101D20000005287820B9FEF75FFF28703546D8B146
:101D300040F21B60C2F2000000783546A0B9FFF700
:101D400043F840F21B62C2F20002107018B14DA0BD
:101D5000FEF702FE06E040F219610020C2F2000127
:101D600008701070354600BF40F21060C2F20000EB
:101D7000007800283FF43BAF40F21C60C2F2000044
:101D8000007800283FF433AF40F21960C2F200003F
:101D9000007800283FF42BAF40F21B60C2F2000035
:101DA000007800283FF423AFA6EB0A0041F2883107
:101DB0008842FFF41CAF22A8FFF768FA8146089515
:101DC00058B1DDE92204FEF79EFA83462046884694
:101DD000FEF799FA04468A4610E042F6AD10C0F6C6
:101DE0000000FEF7B9FD40F2000844F2000A4FF08F
:101DF000000BC4F212080024C4F2500A24AF42F6C9
:101E0000D91238464FF4C071C0F600022AA328A5A3
:101E1000CDE902B8CDE9044A009500F0F3F8384660
:101E2000FEF76AFF00287FF4B9AE25A0FEF794FD07
:101E300040F219610020C2F20001087040F21B61FB
:101E4000C2F200010870C2E60D0A436F6C642D6394
:101E50006861696E206E6F646520626F6F740D0A31
:101E6000000000004C6F63616C20616C61726D203A
:101E70006D7574656420627920627574746F6E0D7F
:101E80000A000000436F6C642D636861696E204D29
:101E900051545420636F6D6D616E6420746F70696E
:101EA0006320737562736372696265640D0A000072
:101EB0005348503030310000444556303031000036
:101EC00054656C656D65747279207075626C6973A8
:101ED00068206661696C65640D0A000083B0F0B526
:101EE00082B040F2F235844607A8C2F200050EC067
:101EF00044F2004407AB28464FF4FA716246C4F23C
:101F00000004019300F098F8002600BFA85D78B1A6
:101F100020468021FFF710FD0028F9D0A95D20465A
:101F2000771CFFF79FFDB6F5F97F3E46EED900BF5F
:101F300020464021FFF700FD0028F9D002B0BDE89F
:101F4000F04003B0704700002DE9F04186B005462F
:101F5000042001214FF00408FFF720F94FF400306E
:101F60000121FFF703F944F20044C4F200042046C3
:101F7000FFF78AFC0420C1F6030004F5444604AFD1
:101F8000049030463946FFF749F80820ADF81000B4
:101F9000304639468DF81380FFF740F82620C0F20E
:101FA0000110059005A8FFF7AFF84FF44020009509
:101FB00000250290694620460195ADF80C50FFF7C8
:101FC000F1FC204640F225510122FFF7D3FC2046C8
:101FD00040F224410122FFF7CDFC20460121FFF70A
:101FE00049FC40F20800C2F200004FF47A71FEF79B
:101FF000A0F840F2F030C2F20000058006B0BDE863
:10200000F08100000FB47CB50C0009AD01D0611E59
:1020100000E00021CDE90001064B6A4629460898F8
:1020200000F0F6F8002C02D0009A002111707CBC60
:102030005DF814FB3F2900087CB50C001D461646D0
:10204000014601D0601E00E00020CDE90010064BE3
:102050006A462946304600F0DBF8002C02D0009A90
:10206000002111707CBD00003F29000802E008C873
:10207000121F08C1002AFAD170477047002001E002
:1020800001C1121F002AFBD1704700002DE9FF5F3C
:1020900082B00021DDE90430020DDDF840B00343D9
:1020A00018D044F61050A2F2FF3242431514119892
:1020B00001281FD0A5EB0B00401C5FEA000A4FF07F
:1020C00000064E4FDFF83891B046504615D5CAF19C
:1020D000000413E0119801244AA3012801D16FEAFA
:1020E0000B010298119AC0E90031C0E9024206B022
:1020F000BDE8F09FCBF10000DFE704460021404A35
:10210000491842EB0450CDE9001012E0E00707D077
:1021100032463B4640464946FEF72DFA8046894600
:1021200032463B4610461946FEF725FA06460F464C
:102130006410002CEAD1DDE90401DDE90023BAF1E5
:10214000000F06DAFEF717FA42464B46FEF713FA7F
:1021500005E0FEF782FA42464B46FEF77EFA044659
:102160000E460022284BFEF7FFFA03D84FF0FF304F
:10217000014607E00022254B20463146FEF754F980
:10218000FEF7DAFA102409E0002C0ADB0A22002309
:10219000FEF7E2F8039B30321A55641E50EA010242
:1021A000F2D1641C039AC4F111031444119A012A58
:1021B00003D0012208430DD10AE0084304D00020D7
:1021C0004FF0110B119072E7A3EB0B056D1E0DE0A4
:1021D0005B4504DD4FF0000205F1010504E003DA80
:1021E0004FF00002A5F10105002AECD002981199E8
:1021F000C0E90231C0E9004579E700000000144061
:102200000000F03F300000000000F0430000E03F1D
:102210002DE9FF4F95B09B468946064600250FE203
:10222000252877D100242746F84A0121059400E0AB
:10223000044316F8013F203B01FA03F01042F7D1A6
:1022400030782A2811D06FF02F033078A0F13002B7
:10225000092A16D8059A44F0020402EB820203EB25
:1022600042021044761C0590EFE759F8042B0592C2
:10227000002A03DA504244F40054059044F002046A
:10228000761C30782E2816D116F8010F44F004047D
:102290002A280DD06FF02F023078A0F13003092BDF
:1022A00009D807EB870302EB4303C718761CF3E753
:1022B00059F8047B761C30786C280FD006DC4C284B
:1022C00017D068280DD06A2814D104E0742810D0E3
:1022D0007A280FD10DE044F400140AE044F480148D
:1022E00001E044F440147278824202D104F5801473
:1022F000761C761C307866280BD013DC582877D0F3
:1023000009DC002875D04528F6D04628F4D04728A7
:102310001AD19DE118E0632835D0642879D065286A
:1023200012D195E1702873D008DC6728F1D06928B4
:102330006FD06E280DD06F2806D1B5E073282CD051
:10234000752875D0782874D05A46179990476D1C17
:1023500075E1C4F30250022809D003280DD0D9F842
:10236000001004280DD00D6009F1040967E1D9F8C7
:102370000010EA17C1E90052F6E7D9F800100D8005
:10238000F2E70D70F0E719F8041B8DF8001000203B
:102390008DF80100EA46012003E059F804AB4FF044
:1023A000FF3061074FF0000102D40DE008F1010198
:1023B0008846B9420FDA8045F8DB1AF80810002980
:1023C000F4D108E008F1010188468142FADB1AF8ED
:1023D00008100029F6D105985B46A0EB08072146B6
:1023E0003846179A00F094FA284400EB080507E0F5
:1023F0004DE029E10DE01AF8010B5A461799904774
:10240000B8F10108F7D25B4621463846179A13E126
:1024100042E00A220092C4F302524FF0000A022A5C
:1024200008D059F804CB032A4FEAEC710AD00DE02A
:1024300029E02AE009F1070121F00702F2E802C1D0
:10244000914609E00FFA8CFC4FEAEC71042A03D1A3
:102450004FFA8CFC4FEAEC71002907DA0A4600219A
:10246000DCF1000C61EB02012D2202E0220504D513
:102470002B228DF80420012203E0E20701D0202264
:10248000F7E7904659E00A2102E010220DE0102102
:102490004FF0000A00910BE010224FF0000A44F0C8
:1024A00004040827009203E008224FF0000A00927B
:1024B000C4F30252022A05D059F804CB0021032AA2
:1024C00008D009E009F1070121F00702F2E802C192
:1024D000914605E01FFA8CFC042A01D10CF0FF0C98
:1024E0004FF00008220728D5702806D0009B83F003
:1024F000100353EA0A0305D00EE040228DF80420B1
:10250000012208E05CEA010206D030228DF80420A6
:102510008DF8050002229046009B83F0080353EAE1
:102520000A030AD15CEA010201D1620705D5302213
:102530008DF804204FF001087F1E582804D034A0E5
:1025400003900EA802900DE036A0F9E753466046CE
:10255000009AFDF701FF84460398825C0298401EB2
:10256000029002705CEA0100F0D1029806A9081AF4
:1025700000F1200A600702D524F4803400E001272E
:10258000574502DDA7EB0A0000E0002000EB0A013E
:10259000009005984144401A0590E00306D45B463C
:1025A0002146179A059800F0B3F90544002706E084
:1025B00001A85A46C05D179990476D1C7F1C47457E
:1025C000F6DBE0030CD55B462146179A059800F030
:1025D0009FF9054404E030205A46179990476D1C36
:1025E0000099481E00900029F5DC08E00298029945
:1025F0005A460078491C0291179990476D1CBAF110
:102600000001AAF1010AF1DC65E1000009280100DE
:102610003031323334353637383961626364656658
:10262000000000003031323334353637383941421A
:10263000434445460000000000F058F90544761C6C
:10264000307800287FF4ECAD19B02846BDE8F08F53
:10265000620700D4062709F1070222F0070CFCE804
:102660000223E14603F000485FEA080C02D00FF2B3
:10267000702C0DE05FEA045C02D50FF2682C07E0D5
:102680005FEAC47C02D00FF2602C01E0AFF2700C64
:102690004FF0FF3823F00043CDF850C065280CD030
:1026A00006DC452809D046281DD047283DD13DE00D
:1026B000662818D067287ED138E00021112F01DB71
:1026C000112000E0781CCDE9000106A90EA8FFF753
:1026D000DDFCDDE90F010E9A03910021009207F164
:1026E000010A04914DE04FF000400097CDE9011040
:1026F00006A90EA8FFF7CAFCDDE90F0203920E9BA4
:1027000011990022DDF80CA00093049211B9791CF4
:1027100000EB010AB7EB0A0004D4C0F1FF3007F167
:10272000010A0490AAEB0700019044E0012F00DAAF
:1027300001270021112F01DD112000E03846CDE9ED
:10274000000106A90EA8FFF7A1FCDDE90F010E9A12
:102750000391002104910092BA4621070CD40399F9
:10276000514500DA8A46BAF1010F05DD009AAAF157
:102770000101515C302908D0B84202DA10F1040F8F
:1027800006DA0121CDE9011015E0AAF10101E9E71E
:10279000002805DC049901440491AAEB000102E041
:1027A000411C514500DD8A460499401A401C0190A5
:1027B0004FF000400290200704D40198504501DBFF
:1027C000CDF8048000208DF84F0002980DF14F07DE
:1027D000B0F1004F25D02B200E9002984FF0020848
:1027E00000280CDA404202902D200E9007E00A21CA
:1027F0000298FDF79BFD3031029007F8011DB8F1FA
:102800000001A8F10108F2DC02980028EFD1791E3E
:102810000E980870307800F0200040F0450007F86E
:10282000020D12A8C01B00F107081498007800B12F
:10283000012000EB0A01019801EBE0710598414489
:10284000401A401E0590E00306D45B462146179AC5
:10285000059800F05DF805441498007818B15A46C0
:10286000179990476D1CE00324D55B462146179AC3
:10287000059800F04DF805441CE00498002807DB9B
:10288000DDE90301884203DD0098405C179901E00F
:10289000179930205A469047049805F10105401CCD
:1028A00004900198401E019004D12E205A46179999
:1028B00090476D1CBAF10001AAF1010ADDDC05E0C8
:1028C00017F8010B5A46179990476D1CB8F1000193
:1028D000A8F10108F4DC5B462146179A0598ABE69F
:1028E0002D0000002B000000200000002DE9F04129
:1028F000044600251E461746880404D405E03946E0
:102900002020B0476D1C641EF9D52846BDE8F08133
:102910002DE9F041044600251E469046C80301D526
:10292000302700E02027880404D505E041463846DA
:10293000B0476D1C641EF9D52846BDE8F0814A6891
:10294000002A06D00A68531C0B6010704868401EAD
:1029500048607047020406080000000001020304FA
:10296000010203040607080954656C656D657472FD
:1029700079206F6B20543D252E32664320483D253B
:102980002E326625250D0A004D6F636B2074656C31
:10299000656D65747279206F6B20543D252E32660B
:1029A0004320483D252E326625250D0A0053485404
:1029B00033312072656164206661696C65642C2026
:1029C0007075626C697368206D6F636B2074656CE1
:1029D000656D657472790D0A007B226465766963A2
:1029E000655F6964223A222573222C22736869701C
:1029F0006D656E745F636F6465223A222573222CC5
:102A0000227473223A22222C2274656D70657261E1
:102A100074757265223A252E32662C2268756D69AE
:102A200064697479223A252E32662C2267707322EB
:102A30003A7B226C6174223A302C226C6F6E223AFF
:102A4000307D2C2262617474657279223A313030A3
:102A50002E302C2272737369223A2D36307D004558
:102A600053503031206E6F20415420726573706F67
:102A70006E73652E20436865636B20626175642008
:102A8000616E6420776972696E672E0D0A00415489
:102A90002B4D515454434F4E4E3D302C2225732222
:102AA0002C25752C300044455630303100313932F8
:102AB0002E3136382E312E3300000000E02A000877
:102AC00000000020080000006C200008E82A000830
:102AD00008000020180A00007C2000080000000008
:082AE00000A24A0400000000FE
:04000005080000ED02
:00000001FF
